:020000040000FA
:060000000A128A110C280F
:10000800FE00030EF0000A08F1000A128A15F32B0D
:100018000A128A110F280A128A15DB230A128A117A
:10002800ED000A128A15DC230A128A11EE008313E6
:10003800A0308400A8300A128A11F8270A128A11FF
:10004800503084006D300A128A11F8270A128A117A
:10005800FA01FB0183010A128A15392E8312031350
:1000680039088039BE003E08C3003908BE003E0783
:10007800BF003F08C900B81F422843284428491434
:1000880049080319482849285828490A031D4D28B2
:100098004E2856280030B9000030B8000030B700AC
:1000A8000030B600B81760280030B9000030B8003A
:1000B8000030B7000030B6003D088039BE003E0869
:1000C800C3063D08BE003E07BF003F08C400BC1F72
:1000D8006E286F287028441444080319742875285A
:1000E8008428440A031D79287A2882280030BD0014
:1000F8000030BC000030BB000030BA00BC178C28B0
:100108000030BD000030BC000030BB000030BA0039
:10011800440803199028912896284908031D952812
:1001280096289F280030B9000030B8000030B7008A
:100138000030B600922B3608BE003E08F2003C089C
:100148000A128A159F240A128A117308831203134C
:10015800CF007208CE004E08BE00BF01C001C10129
:100168004108C8004008C7003F08C6003E08C5004F
:100178004F08BE00BF01C001C1014108CD004008C1
:10018800CC003F08CB003E08CA003708BE003E0836
:10019800F2003B080A128A159F240A128A11730872
:1001A80083120313CF007208CE004E08BE00BF01B1
:1001B800C001C1013E08C5073F0803110318013EED
:1001C8000319E728C607400803110318013E03195D
:1001D800EE28C707410803110318013E0319F52843
:1001E800C8074F08BE00BF01C001C1013E08CA07C9
:1001F8003F0803110318013E03190329CB074008E0
:1002080003110318013E03190A29CC0741080311F9
:100218000318013E03191129CD073808BE003E080E
:10022800F2003A080A128A159F240A128A117308E2
:1002380083120313CF007208CE004E08BE00BF0120
:10024800C001C1013E08C5073F0803110318013E5C
:1002580003192F29C607400803110318013E031983
:100268003629C707410803110318013E03193D2920
:10027800C8074F08BE00BF01C001C1013E08CA0738
:100288003F0803110318013E03194B29CB07400807
:1002980003110318013E03195229CC074108031121
:1002A8000318013E03195929CD070830BE00031071
:1002B800C50DC60DC70DC80DBE0B5B293708BE009E
:1002C8003E08F2003A080A128A159F240A128A1177
:1002D800730883120313CF007208CE004E08BE00C5
:1002E8004F08BF00C001C1013E08C5073F08031100
:1002F8000318013E03198129C60740080311031892
:10030800013E03198829C707410803110318013E54
:1003180003198F29C8073608BE003E08F2003B08BB
:100328000A128A159F240A128A117308831203136A
:10033800CF007208CE004E08BE004F08BF00C001B3
:10034800C1013E08C5073F0803110318013E031900
:10035800AE29C607400803110318013E0319B52941
:10036800C707410803110318013E0319BC29C80730
:100378000830BE000310C50DC60DC70DC80DBE0B55
:10038800BE293608BE003E08F2003A080A128A154D
:100398009F240A128A11730883120313CF0072086C
:1003A800CE004E08BE004F08BF00C001C1013E0884
:1003B800C5073F0803110318013E0319E429C607BE
:1003C800400803110318013E0319EB29C707410828
:1003D80003110318013E0319F229C8073708BE00A4
:1003E8003E08F2003C080A128A159F240A128A1154
:1003F800730883120313CF007208CE004E08BE00A4
:100408004F08BF00C001C1013E08CA073F080311D9
:100418000318013E0319112ACB07400803110318DA
:10042800013E0319182ACC07410803110318013E9D
:1004380003191F2ACD073808BE003E08F2003B0802
:100448000A128A159F240A128A1173088312031349
:10045800CF007208CE004E08BE004F08BF00C00192
:10046800C1013E08CA073F0803110318013E0319DA
:100478003E2ACB07400803110318013E0319452AF9
:10048800CC07410803110318013E03194C2ACD0774
:100498003808BE003E08F2003C080A128A159F245C
:1004A8000A128A11730883120313CF007208CE0050
:1004B8004E08BE004F08BF00C001C101083003103C
:1004C800BE0DBF0DC00DC10DFF3E031D632A3E08C2
:1004D800CA073F0803110318013E0319742ACB0702
:1004E800400803110318013E03197B2ACC07410871
:1004F80003110318013E0319822ACD074508BE00DF
:100508004608BF004708C0004808C100183003105B
:10051800C10CC00CBF0CBE0CFF3E031D8B2A3E084D
:10052800CA073F0803110318013E03199C2ACB0789
:10053800400803110318013E0319A32ACC074108F8
:1005480003110318013E0319AA2ACD070830BE007B
:100558000310C50DC60DC70DC80DBE0BAC2A490842
:100568004407BE00BF01BF0D3E08823ECE003F08D3
:100578000318013EFF3ECF00DE2A0130BE00031003
:10058800CA0DCB0DCC0DCD0DBE0BC32AC81FCD2A6D
:10059800CE2ACF2A4A140130BE000310C50DC60D5D
:1005A800C70DC80DBE0BD12AFF30CE070318CF0ADE
:1005B800FF30CF07CC1FE12AE22AC12AC401C81F95
:1005C800E62AE72A032BFF304505BE00FF30460523
:1005D800BF00FF304705C0007F304805C100410813
:1005E80040043F043E040319FA2AFB2AFE2AC401E8
:1005F800C40A032B4A1C012B022B032BFB2A440899
:100608000319072B082B392B0130CA0700300318B0
:100618000130CB07003003180130CC070030031835
:100628000130CD074D1C192B1A2B392B4A08BE0057
:100638004B08BF004C08C0004D08C1000130C20083
:10064800410DC10CC00CBF0CBE0CC20B242B4108C1
:10065800CD004008CC003F08CB003E08CA0001305E
:10066800CE070318CF0A0030CF074F08803AFF00A3
:1006780080307F02031D422BFF304E02031C452BA6
:10068800462B512B7F3083120313CD008030CC00D2
:100698000030CB000030CA00862B831203134F08AA
:1006A800803AFF0080307F02031D5C2B01304E0230
:1006B80003185F2B602B6C2B003083120313CD00C3
:1006C8000030CC000030CB000030CA00C301862BBC
:1006D800831203134E08BE003E08C900FF30CA0546
:1006E800FF30CB057F30CC050030CD05491C7D2B74
:1006F8007E2B7F2BCC174908BE0003103E0CBF0091
:100708003F08CD004308BE003E08CD044D08B9009F
:100718004C08B8004B08B7004A08B600080075082E
:10072800803983120313A0002008A8007508A000D0
:100738002007A1002108AA00F41FA32BA42BA52B96
:100748002A142A080319A92BAA2BBA2B2A0A031D33
:10075800AE2BAF2BB72B0030F5000030F400003083
:10076800F3000030F200F417F501C22B0030F50059
:100778000030F4000030F3000030F20079088039CE
:10078800A0002008A900290828060319CC2BCD2B86
:10079800CE2B28177908A0002007A1002108A9005E
:1007A800F81FD72BD82BD92B291429080319DD2B8F
:1007B800DE2BEE2B290A031DE22BE32BEB2B00305B
:1007C800F9000030F8000030F7000030F600F817A4
:1007D800F901F62B0030F9000030F8000030F7007E
:1007E8000030F6002A0829020318FB2BFC2B402CAA
:1007F800281FFF2B002C042C8030A0002008A806FE
:100808002A08A0002008AB002908A0002008AA0098
:100818002B08A0002008A9007208A0002008AB003F
:100828007608A0002008F2002B08A0002008F60097
:100838007308A0002008AB007708A0002008F30088
:100848002B08A0002008F7007408A0002008AB00BF
:100858007808A0002008F4002B08A0002008F80061
:100868007508A0002008AB007908A0002008F50052
:100878002B08A0002008F900AB012908A000A1015D
:100888002108A3002A082002A200031CA3032308AE
:10089800803AFF0080307F02031D542C1A30220258
:1008A800031C572C582C952C750874047304720477
:1008B800031D5F2C612C0130622C0030831203135E
:1008C800A0002008AB000030F5000030F400003034
:1008D800F3000030F2002908A0002008AA009D2C8F
:1008E8002B1C772C782C812C2B08A0000310200CB3
:1008F8000138A1002108AB00832C0310AB0C721C3B
:10090800862C872C882CAB170130A000750DF50CB0
:10091800F40CF30CF20CA00B8A2C0130A000200878
:10092800AA078312031329082A02031C9C2C9D2C56
:10093800742C281BA02CA12CEC2C2A08031DA52CF8
:10094800A62CAF2C0030F5000030F4000030F30086
:100958000030F2001A2E7608F20777080311031800
:10096800013E0319B82CF307780803110318013E58
:100978000319BF2CF407790803110318013E031962
:10098800C62CF507751CC92CCA2CA02D2B1CCD2CE8
:10099800CE2CD72C2B08A0000310200C0138A10066
:1009A8002108AB00D92C0310AB0C721CDC2CDD2CFD
:1009B800DE2CAB170130A000750DF50CF40CF30C10
:1009C800F20CA00BE02C0130A0002008AA07A02DF3
:1009D8007508803AFF007908803A7F02031DFE2CD3
:1009E80078087402031DFE2C77087302031DFE2C81
:1009F800760872020318012D022D5A2DFF30A0002F
:100A0800FF30A100FF30A200FF30A3007608A40049
:100A18007708A5007808A6007908A7007208A4023C
:100A28007308031C730F192D1A2DA5027408031CD3
:100A3800740F1F2D202DA6027508031C750F252D78
:100A4800262DA7022408A00725080318250F2D2DF9
:100A58002E2DA10726080318260F332D342DA207A3
:100A680027080318270AA3072308F5002208F4001B
:100A78002108F3002008F2008030A0002008A80612
:100A8800AB09AB0A2B08031D4A2D4B2D682D0130ED
:100A9800F207003003180130F30700300318013063
:100AA800F407003003180130F507682D7608F202C4
:100AB8007708031C770FF3027808031C780FF402F9
:100AC8007908031C790FF50275087404730472041D
:100AD800031D6F2D702D9C2D2B08031D742D752D56
:100AE8009C2D0030F5000030F4000030F300003099
:100AF800F2001A2E0130A0000310F20DF30DF40DD0
:100B0800F50DA00B802DAB1F8A2D8B2D8C2D72140B
:100B18002B1C8F2D902D932D0314AB0D952D0310A9
:100B2800AB0D2A080319992D9A2D9C2D0130AA0284
:100B3800F41F9F2DA02D7E2DA901AB1FA42DA52D3F
:100B4800B32D2B087F390319AA2DAB2DAE2DA90182
:100B5800A90AB32D721CB12DB22DB32DAB2D2908C6
:100B68000319B72DB82DEC2D0130F207003003180A
:100B78000130F307003003180130F4070030031880
:100B88000130F507751CC92DCA2DEC2D7208A0007F
:100B98007308A1007408A2007508A3000130A4001E
:100BA800230DA30CA20CA10CA00CA40BD42D23087C
:100BB800F5002208F4002108F3002008F2002A0AB0
:100BC8000319E72DE82DEC2D0130A0002008AA0715
:100BD8002A0A0319F02DF12DF62D2A08031DF52DEB
:100BE800F62D042E0030F5000030F4000030F3003C
:100BF8000030F2002A08031D022E032E042EA8013D
:100C08002A1C072E082E0A2EF4170E2E7F30A0005D
:100C18002008F4052A08A0000310200CA1002108D0
:100C2800F500A81F182E192E1A2EF5170800831282
:100C3800031335088039B6003608BF003508B600FA
:100C48003607B7003708C600B41F2B2E2C2E2D2EC2
:100C5800461446080319312E322E422E460A031D29
:100C6800362E372E3F2E0030B5000030B40000304D
:100C7800B3000030B200B417B5014A2E0030B500F9
:100C88000030B4000030B3000030B20031088039C1
:100C9800B6003608BF063108B6003607B700370871
:100CA800C700B01F582E592E5A2E4714470803194B
:100CB8005E2E5F2E6F2E470A031D632E642E6C2E48
:100CC8000030B1000030B0000030AF000030AE009E
:100CD800B017B101772E0030B1000030B0000030FD
:100CE800AF000030AE00310830042F042E04031D7D
:100CF8007E2E7F2E982E0030B5000030B4000030D4
:100D0800B3000030B2008030B4047F30B5043F082F
:100D1800B6003608B5043508B1003408B000330809
:100D2800AF003208AE00F72F4608031D9C2E9D2EFB
:100D3800A62E0030B1000030B0000030AF00003007
:100D4800AE00F72F4608B600B7013708B9004708C4
:100D58003602B800031CB90338087F3EC0003908C2
:100D68000318013E003EC1003508BE003408BD002E
:100D78003308BC003208BB000030B5000030B400B6
:100D88000030B3000030B2000030C5000030C400AD
:100D98000030C3000030C200C7011C2F47080319E8
:100DA800D62ED72EF72E0130B6000310BB0DBC0D82
:100DB800BD0DBE0DB60BD92E0130B6000310B20D15
:100DC800B30DB40DB50DB60BE22EC51FEC2EED2EEE
:100DD800EE2E32140130B6000310C20DC30DC40D3F
:100DE800C50DB60BF02E31083E02031D052F300845
:100DF8003D02031D052F2F083C02031D052F2E0859
:100E08003B02031C082F092F182F45172E08BB0279
:100E18002F08031C2F0FBC023008031C300FBD0223
:100E28003108031C310FBE020130B6003608C7076F
:100E38001A304702031C212F222FD22E3E083D04D0
:100E48003C043B040319292F2A2F492F4214492F08
:100E58000130B6000310B20DB30DB40DB50DB60BCD
:100E68002E2FC51F382F392F3A2F32140130B600D4
:100E78000310C20DC30DC40DC50DB60B3C2FFF30BA
:100E8800C0070318C10AFF30C107B41F4C2F4D2FEC
:100E98002C2FC701C51F512F522F6E2FFF3042052F
:100EA800B600FF304305B700FF304405B8007F3077
:100EB8004505B90039083804370436040319652F85
:100EC800662F692FC701C70A6E2F321C6C2F6D2F32
:100ED8006E2F662F47080319722F732FA42F013026
:100EE800B207003003180130B3070030031801308F
:100EF800B407003003180130B507351C842F852F3F
:100F0800A42F3208B6003308B7003408B8003508F3
:100F1800B9000130BA00390DB90CB80CB70CB60CD1
:100F2800BA0B8F2F3908B5003808B4003708B3005A
:100F38003608B2000130C0070318C10A0030C107E3
:100F48004108803AFF0080307F02031DAD2FFF303B
:100F58004002031CB02FB12FBF2FFF3083120313A1
:100F6800C0000030C1000030B5000030B4000030CF
:100F7800B3000030B200831203134108803AFF0027
:100F880080307F02031DCA2F013040020318CD2F85
:100F9800CE2FDB2F83120313C001C1010030B5002F
:100FA8000030B4000030B3000030B200BF0183123B
:100FB80003134008B6003608C600461CE42FE52F88
:100FC800E72FB417EB2F7F30B6003608B405460874
:100FD800B6000310360CB7003708B5003F08B60056
:100FE8003608B5048F2E080064008001840A0406C0
:080FF800031900340406F92F6F
:1017B60001340F34F20072088312031393000800F9
:1017C60083160313141CE82BE92BE32B08000A12DB
:1017D6008A15E3230A128A158312031313080800D5
:1017E600831203138C1EF82BF92BFB2B1A08860089
:1017F60071088A00700E8300FE0E7E0E0900F50049
:10180600831603138712751D092C0A2C0E2C7408D7
:1018160094008715122C72087404940087117508B9
:1018260073048312031394000800F4001B2C0000B9
:1018360083160313981C202C212C1A2C740883124F
:10184600031399000430F300E430F200F20B292C64
:10185600F30B292C00000800803083120313B10615
:101866003508F5003408F4003308F3003208F200B6
:101876003108F9003008F8002F08F7002E08F600A6
:101886000A128A1193230A128A1575088312031302
:10189600B1007408B0007308AF007208AE0008000B
:1018A600F601F701721C582C592C5F2C7408F607A8
:1018B6000318F70A7508F70701300310F40DF50D44
:1018C600FF3E031D602C01300310F30CF20CFF3EAB
:1018D600031D672C72087304031D722C732C552C80
:1018E6007708F3007608F20008008030F200253011
:1018F600F3000A128A15C8240A128A1510308316B4
:1019060003138700831603178801890183160313BF
:101916000711860188018312031386018801831645
:1019260003138517F201F301F40120300A128A1518
:1019360002240A128A15080083120313A400A001C8
:10194600A1017208F400F5017408A2007508A3004D
:10195600241CAE2CAF2CB52C2208A0070318A10A14
:101966002308A10701300310A20DA30DFF3E031D9E
:10197600B62C0310A40C2408031DC22CC32CAB2CBC
:101986002108F3002008F2000800803083160313B4
:1019960087008C168B170B17263098009030831211
:1019A60003139800831603178715803072062530B7
:1019B60003197306031DE02CE12CE62C6730831611
:1019C60003139900002DB1307206283003197306EF
:1019D600031DEE2CEF2CF42C5F30831603139900B5
:1019E600002D4B3073067204031DFA2CFB2C002DC0
:1019F6003330831603139900002D08000310740D6D
:101A0600750D83120313A0002008F7007708031D45
:101A16000D2D0E2D172D0030F5000030F40000308E
:101A2600F3000030F2007C2D7208A0007308A100BC
:101A36007408A2007508A3001F300310A30CA20CA3
:101A4600A10CA00CFF3E031D202D2008A400240895
:101A5600F600F417FF30F205FF30F305FF30F4050A
:101A66000030F5059630F702F71F3A2D3B2D552D20
:101A76007708803A973E0318412D422D432D0E2DAF
:101A860001300310F50CF40CF30CF20CFF3E031DB1
:101A9600442D0130A0002008F707031D532D542DB7
:101AA600432D6C2D20307702031C5A2D5B2D672D9C
:101AB6000E2D0130A0000310F20DF30DF40DF50DFF
:101AC600A00B5E2D0130F7027708031D6B2D6C2DE0
:101AD6005C2D76080319702D712D7C2DF209F30902
:101AE600F409F509F20A0319F30A0319F40A0319AA
:101AF600F50A080083120313A80028080319842D89
:101B0600852D992DA31F882D892D992D2009AA0091
:101B16002109AB002209AC002309AD00AA0A03196A
:101B2600AB0A0319AC0A0319AD0AA12D2308AD00AF
:101B36002208AC002108AB002008AA0023082204D2
:101B460021042004031DA82DA92DB22D0030A300C9
:101B56000030A2000030A1000030A000382E9630E0
:101B6600A4002408A900C42D0130A4002408A90754
:101B760001300310AD0CAC0CAB0CAA0CFF3E031DE0
:101B8600BC2DFE302D05031DC92DCA2DB72DE62D02
:101B96000130A4002408A9070130AA070030031861
:101BA6000130AB07003003180130AC0700300318D2
:101BB6000130AD0701300310AD0CAC0CAB0CAA0C18
:101BC600FF3E031DDE2DFF302D05031DEB2DEC2DF5
:101BD600CB2DF82D0130A9020130A4000310AA0D67
:101BE600AB0DAC0DAD0DA40BF12DAC1BFB2DFC2DDF
:101BF600022E023029020318012E022EED2D29187D
:101C0600052E062E0E2EFF30AA05FF30AB057F30BF
:101C1600AC05FF30AD050310A90C2908A400A501E9
:101C2600A601A70118300310A40DA50DA60DA70D3A
:101C3600FF3E031D162E2408AA042508AB04260819
:101C4600AC042708AD04280803192A2E2B2E302EA3
:101C5600A31F2E2E2F2E302EAD172D08A3002C08D5
:101C6600A2002B08A1002A08A00008000A128A1563
:101C760078240A128A1501300A128A15DD230A12FF
:101C86008A150A128A15EA230A128A15831603137D
:101C9600A8002808FB000D3083160313A900FB30AB
:101CA600A800A80B542EA90B542E02300A128A152E
:101CB600DD230A128A150A128A15EA230A128A15E0
:101CC60083160313A8002808FA000D3083160313A1
:101CD600A900FB30A800A80B6E2EA90B6E2E433070
:101CE60083120313B1007F30B0000030AF00003024
:101CF600AE000530F4000030F5007B0883160313B0
:101D0600A800A9012808F2002908F3000A128A157A
:101D160053240A128A15720883120313A00073084B
:101D2600A1000030A11BFF30A200A30001300A125F
:101D36008A157D250A128A15831203132308B50016
:101D46002208B4002108B3002008B2000A128A1142
:101D56001B260A128A15831203133108DF00300886
:101D6600DE002F08DD002E08DC004330B1007F3096
:101D7600B0000030AF000030AE000530F400003097
:101D8600F5007A0883160313A800A9012808F200B3
:101D96002908F3000A128A1553240A128A157208B2
:101DA60083120313A0007308A1000030A11BFF30AB
:101DB600A200A30001300A128A157D250A128A158F
:101DC600831203132308B5002208B4002108B300C8
:101DD6002008B2000A128A111B260A128A158312DB
:101DE60003133108DB003008DA002F08D9002E086B
:101DF600D8005F08F5005E08F4005D08F3005C0893
:101E0600F2000A128A1501250A128A15730883122E
:101E16000313E7007208E6005B08F5005A08F400B1
:101E26005908F3005808F2000A128A1501250A1209
:101E36008A15730883120313E5007208E400423022
:101E4600B900C830B8000030B7000030B6006608E8
:101E5600A0006708A1000030A11BFF30A200A3006C
:101E660001300A128A157D250A128A158312031378
:101E76002308B1002208B0002108AF002008AE00F8
:101E86005F08B5005E08B4005D08B3005C08B200E8
:101E96000A128A152F240A128A158312031331088F
:101EA600BD003008BC002F08BB002E08BA000A127D
:101EB6008A1132200A128A15831203133908D700B1
:101EC6003808D6003708D5003608D4005708F5007C
:101ED6005608F4005508F3005408F2000A128A1551
:101EE60001250A128A15730883120313E300720888
:101EF600E2004230B900C830B8000030B700003008
:101F0600B6006408A0006508A1000030A11BFF30E0
:101F1600A200A30001300A128A157D250A128A152D
:101F2600831203132308B1002208B0002108AF0072
:101F36002008AE005B08B5005A08B4005908B30083
:101F46005808B2000A128A152F240A128A1583121B
:101F560003133108BD003008BC002F08BB002E0853
:101F6600BA000A128A1132200A128A158312031342
:101F76003908D3003808D2003708D1003608D00017
:101F86005308F5005208F4005108F3005008F20017
:101F96000A128A1501250A128A1573088312031379
:101FA600E1007208E0006F300A128A1518240A123E
:101FB6008A158312031366080A128A1518240A1250
:101FC6008A158312031362080A128A1518240A1244
:101FD6008A158312031364080A128A1518240A1232
:101FE6008A158312031360080A128A1518240A1226
:0A1FF6008A153E2E0A128A110C28EB
:04400E00D4E0FFFFFC
:00000001FF
